{
  "_format": "hh-sol-artifact-1",
  "contractName": "Counter",
  "sourceName": "contracts/Counter.sol",
  "abi": [
    {
      "inputs": [
        {
          "internalType": "uint256",
          "name": "initialValue",
          "type": "uint256"
        }
      ],
      "stateMutability": "nonpayable",
      "type": "constructor"
    },
    {
      "anonymous": false,
      "inputs": [
        {
          "indexed": false,
          "internalType": "uint256",
          "name": "newValue",
          "type": "uint256"
        }
      ],
      "name": "Incremented",
      "type": "event"
    },
    {
      "inputs": [
        {
          "internalType": "uint256",
          "name": "by",
          "type": "uint256"
        }
      ],
      "name": "increment",
      "outputs": [],
      "stateMutability": "nonpayable",
      "type": "function"
    },
    {
      "inputs": [],
      "name": "value",
      "outputs": [
        {
          "internalType": "uint256",
          "name": "",
          "type": "uint256"
        }
      ],
      "stateMutability": "view",
      "type": "function"
    }
  ],
  "bytecode": "0x608060405234801561001057600080fd5b5060405161018238038061018283398101604081905261002f91610037565b600055610050565b60006020828403121561004957600080fd5b5051919050565b6101238061005f6000396000f3fe6080604052348015600f57600080fd5b506004361060325760003560e01c80633fa4f2451460375780637cf5dab0146051575b600080fd5b603f60005481565b60405190815260200160405180910390f35b6060605c36600460af565b6062565b005b806000808282546071919060c7565b90915550506000546040519081527f20d8a6f5a693f9d1d627a598e8820f7a55ee74c183aa8f1a30e8d4e8dd9a8d849060200160405180910390a150565b60006020828403121560c057600080fd5b5035919050565b8082018082111560e757634e487b7160e01b600052601160045260246000fd5b9291505056fea2646970667358221220cfe2f3dd2af538634dd365cb53445e607d9aefc8e081bf5f0512fec1cff239c864736f6c63430008180033",
  "linkReferences": {},
  "deployedLinkReferences": {}
}